:100000000C945D000C9485000C9485000C94850084
:100010000C9485000C9485000C9485000C9485004C
:100020000C9485000C9485000C9485000C9485003C
:100030000C9485000C9485000C9485000C9485002C
:100040000C9471030C9485000C9437030C94FC02FF
:100050000C9485000C9485000C9485000C9485000C
:100060000C9485000C94850000000007000201003C
:100070000003040600000000000000000000000073
:10008000250028002B0000000000240027002A0083
:10009000040404040404040402020202020203032E
:1000A0000303030301020408102040800102040836
:1000B0001020010204081020BB0311241FBECFEF43
:1000C000D8E0DEBFCDBF11E0A0E0B1E0E4E3F2E1B3
:1000D00002C005900D92AC32B107D9F721E0ACE235
:1000E000B1E001C01D92AE3EB207E1F710E0CDE5F0
:1000F000D0E004C02197FE010E941209CC35D1073F
:10010000C9F70E94F6030C94B8060C94000090E026
:10011000FC01EC55FF4F2491FC01E057FF4F849107
:10012000882399F090E0880F991FFC01EA57FF4F50
:10013000A591B491FC01E458FF4F859194918FB73C
:10014000F894EC91E22BEC938FBF08950F931F93DB
:10015000CF93DF93FC01A685B7858D01005C1F4F0F
:10016000E8018881998101968F739927AD014E5BD3
:100170005F4FEA012881398128173907D1F3E80157
:1001800028813981A20FB31F6C93A685B785A05C27
:10019000BF4F11969C938E93A689B7892C9181E0CD
:1001A00090E0078C02C0880F991F0A94E2F7822B17
:1001B0008C9381E081A30488F589E02D808180649F
:1001C000808381E090E0DF91CF911F910F9108959E
:1001D000FC0181A1882329F0A489B5898C9186FF2F
:1001E000FBCF11A20895FC01A485B585FD01E05C5B
:1001F000FF4F208131813296808191812817390704
:1002000079F080819181A80FB91F8C912081318173
:100210002F5F3F4F2F7333273183208390E0089562
:100220008FEF9FEF08952FB7F8948091C4019091BC
:10023000C501A091C601B091C7012FBF8093D00125
:100240009093D101A093D201B093D30188EC91E0B7
:100250000E94F30097FF26C02FB7F8948091C40145
:100260009091C501A091C601B091C7012FBF4091E7
:10027000D0015091D1016091D2017091D301841BC2
:10028000950BA60BB70B4091CC015091CD0160911D
:10029000CE017091CF0184179507A607B707B0F27A
:1002A0008FEF9FEF0895DC011C96ED91FC911D9757
:1002B000DF01A05CBF4F2D913C91119712968D915B
:1002C0009C9111972817390739F08D919C91E80F6F
:1002D000F91F808190E008958FEF9FEF0895FC0152
:1002E00024853585F901E05CFF4F8081918132964C
:1002F00020813181821B930B8F739927089588EC9D
:1003000091E00C946F010895CF92DF92EF92FF92EB
:100310000F931F93CF93DF936C01EB017B01E40EEE
:10032000F51E00E010E0CE15DF0561F06991D60101
:10033000ED91FC910190F081E02DC6010995080F27
:10034000191FF1CFC801DF91CF911F910F91FF903D
:10035000EF90DF90CF90089590E0FC01E859FF4FB7
:100360002491FC01EC55FF4F3491FC01E057FF4F05
:10037000E491EE2309F43CC0222339F1233091F0BB
:1003800038F42130A9F0223001F584B58F7D12C0F8
:10039000263091F02730A1F02430B9F4809180000C
:1003A0008F7D03C0809180008F77809380000DC087
:1003B00084B58F7784BD09C08091B0008F7703C06A
:1003C0008091B0008F7D8093B000F0E0EE0FFF1FB2
:1003D000E458FF4FA591B4919FB7F894611104C000
:1003E0008C913095382302C0EC913E2B3C939FBFFB
:1003F00008953FB7F89480912D0190912E01A0911E
:100400002F01B091300126B5A89B05C02F3F19F0F0
:100410000196A11DB11D3FBFBA2FA92F982F882784
:10042000820F911DA11DB11DBC01CD0142E0660FDF
:10043000771F881F991F4A95D1F708950F931F932F
:10044000CF93DF93EC0188819981009729F02A816D
:100450003B812617370788F48B016F5F7F4F0E941F
:10046000F107009761F0998388831B830A832C81AD
:100470003D81232B11F4FC01108281E001C080E05A
:10048000DF91CF911F910F910895CF93DF93EC01EE
:1004900088819981009711F00E946807198218825B
:1004A0001D821C821B821A82DF91CF910895EF92E8
:1004B000FF920F931F93CF93DF93FC011182108261
:1004C000138212821582148216826115710529F138
:1004D0008B01EC01FB0101900020E9F731977F01CE
:1004E000E61AF70AB7010E941E02811109C0CE0167
:1004F000DF91CF911F910F91FF90EF900C944502E7
:10050000FD82EC82B80188819981DF91CF911F91A2
:100510000F91FF90EF900C94D408DF91CF911F9131
:100520000F91FF90EF9008959F92AF92BF92CF925C
:10053000DF92EF92FF920F931F93CF93DF937C0193
:100540006B018A01E9012417350720F4812F890105
:10055000C42FD82F6AE271E0C7010E945702D6016A
:1005600014968D919C9115978017910798F18C178F
:100570009D0708F4EC01D601ED91FC911197EC0F69
:10058000FD1F90801082AD90BC90A00EB11EA114F2
:10059000B10471F0F50101900020E9F731978F0166
:1005A0000A191B09B801C7010E941E02811104C06B
:1005B000C7010E94450208C0F70115830483B501F5
:1005C000808191810E94D408D6018D919C91C80FA1
:1005D000D91F9882C701DF91CF911F910F91FF9092
:1005E000EF90DF90CF90BF90AF909F900895FC0167
:1005F000808191810C9468071F920F920FB60F9221
:1006000011242F933F938F939F93EF93FF93209108
:100610007C0130917D0180917E0190917F012817AE
:10062000390731F48091C1008F7D8093C10014C0DF
:10063000E0917E01F0917F01E45CFE4F208180918A
:100640007E0190917F0101968F73992790937F018E
:1006500080937E012093C600FF91EF919F918F912F
:100660003F912F910F900FBE0F901F9018951F92E2
:100670000F920FB60F9211242F934F935F938F9386
:100680009F93EF93FF938091C00082FD1CC0209147
:10069000C6008091C0019091C1014091C20150916A
:1006A000C30101968F7399274817590771F0E0919C
:1006B000C001F091C101E058FE4F20839093C10129
:1006C0008093C00102C08091C600FF91EF919F917D
:1006D0008F915F914F912F910F900FBE0F901F90B0
:1006E00018951F920F920FB60F9211242F933F93DC
:1006F0008F939F93AF93BF938091C4019091C50155
:10070000A091C601B091C70130912C0123E0230FC5
:100710002D3720F40196A11DB11D05C026E8230F39
:100720000296A11DB11D20932C018093C4019093CA
:10073000C501A093C601B093C70180912D0190918E
:100740002E01A0912F01B09130010196A11DB11D84
:1007500080932D0190932E01A0932F01B09330012F
:10076000BF91AF919F918F913F912F910F900FBEAD
:100770000F901F901895E8ECF1E01382128288EE3A
:1007800093E0A0E0B0E084839583A683B7838AE0FA
:1007900091E09183808380E891E0958784878CE362
:1007A00091E09787868785EC90E0918B808B84EC35
:1007B00090E0938B828B80EC90E0958B848B81EC26
:1007C00090E0978B868B82EC90E0918F808F86EC07
:1007D00090E0938F828F84E0848F83E0858F87E021
:1007E000868F85E0878F81E080A30895CF93DF9384
:1007F000CDB7DEB7A6970FB6F894DEBF0FBECDBF5C
:10080000789484B5826084BD84B5816084BD85B5EB
:10081000826085BD85B5816085BD80916E008160F7
:1008200080936E001092810080918100826080939D
:10083000810080918100816080938100809180009F
:100840008160809380008091B10084608093B100CA
:100850008091B00081608093B00080917A008460C4
:1008600080937A0080917A00826080937A008091F0
:100870007A00816080937A0080917A00806880930A
:100880007A001092C100E091DC01F091DD0181E07D
:1008900090E09C010090E80102C0220F331F0A94EF
:1008A000E2F72083E091D801F091D9011082E09124
:1008B000DA01F091DB012FEC20831092E901E09145
:1008C000DE01F091DF0140819C010090E40102C053
:1008D000220F331F0A94E2F7242B2083E091DE01DC
:1008E000F091DF0140819C010090E50102C0220FE0
:1008F000331F0A94E2F7242B2083E091DE01F0916C
:10090000DF0140819C010090E60102C0220F331FED
:100910000A94E2F7242B2083E091DE01F091DF01BD
:1009200020810090E70102C0880F991F0A94E2F726
:1009300080958223808388E00E94870089E00E945E
:1009400087008AE00E9487008BE00E948700109257
:1009500032011092330110923401109235018FEF61
:100960009FEF9093370180933601109238011092D7
:10097000390110923A0110923B01CE0107969EA3D5
:100980008DA322242A94322CCC24C394D12C88EC1D
:1009900091E00E946F01181619060CF042C16AE23C
:1009A00071E0CE014E960E9457020E9413010AA1E7
:1009B0001BA197FD19C089831A820F5F1F4FB801D1
:1009C000CE014E960E941E02882379F32E8D3F8D14
:1009D0008AA19BA1BE016F5F7F4F820F931F0E9470
:1009E000D4081BA30AA3E1CF8E8C9F8C011511059F
:1009F000E1F066E171E0C4010E94CB08892BA9F403
:100A0000109232011092330110923401109235018C
:100A1000D0923701C09236011092380110923901FC
:100A200010923A0110923B01F8C01A821982FE011D
:100A300031967F01F701819191917F010196801795
:100A4000910758F46EE270E0880D991D0E94C0086D
:100A5000009719F08819990902C08FEF9FEFF701ED
:100A6000918380838DA19EA18E159F0519F724E0A7
:100A700030E040E050E0BE01625E7F4FCE0147961D
:100A80000E9494028B8D9C8D892BC9F00F89188D43
:100A90006BE171E0C8010E94CB08892B29F4D09248
:100AA0003701C09236010BC060E271E0C8010E94BC
:100AB000CB08892B21F430923701209236012D8109
:100AC0003E814B815C814F5F5F4FBE01625E7F4F15
:100AD000CE0109960E94940289859A85009729F093
:100AE0000E9491064B015C0103C0812C912C5401A2
:100AF000CE0109960E94F7020F8118850F5F1F4FE4
:100B00002AA13BA121503109A801BE01625E7F4F9D
:100B1000CE0109960E94940289859A85009729F052
:100B20000E9491062B013C0103C0412C512C320143
:100B3000CE0109960E94F702809232019092330111
:100B4000A0923401B092350140923801509239019F
:100B500060923A0170923B012AA13BA121503109D8
:100B6000A801BE01625E7F4FCE0140960E949402B2
:100B700065E271E0CE0109960E9457028C899D8939
:100B8000E888F988E114F10409F4C6C00097B9F0C7
:100B90000D851E85080F191FB801CE0109960E9408
:100BA0001E02882309F4B8C029853A858D859E8563
:100BB000B701820F931F0E94D4081E870D8700E0A3
:100BC00010E08D859E850817190788F489859A8518
:100BD000009729F0FC01E00FF11F608101C060E087
:100BE00088EC91E00E94A6000F5F1F4FEACF6DE0F6
:100BF00088EC91E00E94A6006AE088EC91E00E94F7
:100C0000A600CE0109960E94F702CE0140960E94EE
:100C1000F702CE0147960E94F702CE014E960E943F
:100C2000F7028091320190913301A0913401B0918B
:100C30003501892B8A2B8B2B09F46BC0409038012E
:100C40005090390160903A0170903B01E09036017C
:100C5000F090310194E09F152CF01F142CF034E03B
:100C6000F32E02C0FF24F39400E110E00F2C02C029
:100C7000159507950A94E2F7B80183E07595679595
:100C80008A95E1F788E00E94AC01B80175956795F7
:100C900075956795617089E00E94AC01B801759502
:100CA000679561708AE00E94AC01602F61708BE0F3
:100CB0000E94AC01FE0CF0923101662477240E9460
:100CC000F9018B01411451046104710479F00E940F
:100CD000F901601B710B683E7340A0F3F1E04F1AFD
:100CE00051086108710808511C4FECCF8091320106
:100CF00090913301A0913401B09135010197A10980
:100D0000B1098093320190933301A0933401B093E1
:100D100035010E947F013BCECE0109960E9445021B
:100D20004ECF1F93FC0199278827BC01E8941191AD
:100D30001032E9F3193010F01E30C8F31B3251F0B5
:100D40001D3249F4689406C00E94BB06610F711DF4
:100D5000811D911D119110531A30B0F33EF49095FE
:100D60008095709561957F4F8F4F9F4F1F9108958C
:100D7000F8940C941809592F482F372F262F660FF7
:100D8000771F881F991F660F771F881F991F620F93
:100D9000731F841F951F660F771F881F991F089563
:100DA0000F931F93CF93DF938230910510F482E06D
:100DB00090E0E091EC01F091ED0120E030E0A0E066
:100DC000B0E0309719F140815181028113814817B9
:100DD0005907C8F08417950769F4109731F01296F7
:100DE0000C93129713961C9327C00093EC01109359
:100DF000ED0122C02115310519F04217530718F4EF
:100E00009A01BD01EF01DF01F801DBCF21153105AA
:100E1000F9F0281B390B2430310580F48A819B813D
:100E20006115710521F0FB019383828304C09093C7
:100E3000ED018093EC01FE01329644C0FE01E20F09
:100E4000F31F8193919322503109398328833AC04B
:100E50002091EA013091EB01232B41F42091020112
:100E6000309103013093EB012093EA0120910001BE
:100E7000309101012115310541F42DB73EB7409164
:100E8000040150910501241B350BE091EA01F0911A
:100E9000EB01E217F307A0F42E1B3F0B28173907CD
:100EA00078F0AC014E5F5F4F2417350748F04E0FC6
:100EB0005F1F5093EB014093EA018193919302C02D
:100EC000E0E0F0E0CF01DF91CF911F910F91089505
:100ED000CF93DF93009709F481C0FC01329713820E
:100EE0001282A091EC01B091ED01109781F4208164
:100EF0003181820F931F2091EA013091EB01281775
:100F0000390751F5F093EB01E093EA0167C0ED0179
:100F100020E030E0CE17DF0740F44A815B819E017C
:100F200041155105F1F0EA01F5CFD383C283408129
:100F30005181840F951FC817D90759F48881998169
:100F4000840F951F0296918380838A819B8193836E
:100F500082832115310529F4F093ED01E093EC0132
:100F60003DC0E901FB83EA8349915991C40FD51F24
:100F7000EC17FD0761F480819181840F951F029623
:100F8000E90199838883828193819B838A83E0E04E
:100F9000F0E012968D919C911397009719F0FD0146
:100FA000DC01F7CF8D919C9111979D012E5F3F4FF2
:100FB000820F931F2091EA013091EB012817390726
:100FC00069F4309729F41092ED011092EC0102C0FF
:100FD00013821282B093EB01A093EA01DF91CF91CB
:100FE0000895A0E0B0E0E7EFF7E00C94DF08EC0133
:100FF000009721F4CB010E94D006B4C0FC01E60F9B
:10100000F71F9C0122503109E217F30708F4A8C02A
:10101000D9010D911C91119706171707B0F00530F3
:10102000110508F49BC0C80104978617970708F4B8
:1010300095C002501109061B170B019311936D9374
:101040007C93CF010E94680789C05B01A01AB10A96
:101050004C01800E911EA091EC01B091ED01612C2C
:10106000712CE12CF12C109709F446C08D919C91C4
:101070001197A815B905B1F56C0142E0C40ED11C59
:10108000CA14DB0478F14C018A189B08640142E021
:10109000C40ED11C1296BC9012971396AC91B5E079
:1010A000CB16D10440F0B282A38391828082D90111
:1010B0006D937C9309C00E5F1F4F800F911FF90144
:1010C00091838083EB2DFA2FE114F10431F0D701E5
:1010D0001396FC93EE93129741C0F093ED01E093C9
:1010E000EC013CC06816790608F43C017D011296BB
:1010F0000D90BC91A02DB7CF8091EA019091EB01AA
:1011000088169906E1F466167706C8F48091000106
:1011100090910101009741F48DB79EB74091040171
:1011200050910501841B950BE817F907C8F4F0935B
:10113000EB01E093EA01F901718360830FC0CB01F9
:101140000E94D0067C01009759F0A801BE010E94C0
:10115000B708CE010E946807C70104C0CE0102C0D3
:1011600080E090E0CDB7DEB7EEE00C94FB08FB0129
:10117000DC0102C001900D9241505040D8F7089513
:10118000FC018191861721F08823D9F799270895CA
:101190003197CF010895FB01DC018D9101908019F9
:1011A0000110D9F3990B0895FB01DC0101900D9218
:1011B0000020E1F708952F923F924F925F926F9235
:1011C0007F928F929F92AF92BF92CF92DF92EF92D7
:1011D000FF920F931F93CF93DF93CDB7DEB7CA1B58
:1011E000DB0B0FB6F894DEBF0FBECDBF09942A8883
:1011F000398848885F846E847D848C849B84AA842B
:10120000B984C884DF80EE80FD800C811B81AA81B7
:10121000B981CE0FD11D0FB6F894DEBF0FBECDBF82
:10122000ED010895EE0FFF1F0590F491E02D099454
:04123000F894FFCF60
:101234000000EE01200000000000A60084016F0100
:10124400F3005301E80073746F70006D6F766300F0
:0C1254006D6F7661007265633A20000047
:00000001FF
