:100000000C945D000C9485000C9485000C94850084
:100010000C9485000C9485000C9485000C9485004C
:100020000C9485000C9485000C9485000C9485003C
:100030000C9485000C9485000C9485000C9485002C
:100040000C94D7030C9485000C949D030C946203CC
:100050000C9485000C9485000C9485000C9485000C
:100060000C9485000C94850000000007000201003C
:100070000003040600000000000000000000000073
:10008000250028002B0000000000240027002A0083
:10009000040404040404040402020202020203032E
:1000A0000303030301020408102040800102040836
:1000B0001020010204081020210411241FBECFEFDC
:1000C000D8E0DEBFCDBF11E0A0E0B1E0E0E2F9E1B1
:1000D00002C005900D92A633B107D9F721E0A6E33F
:1000E000B1E001C01D92AC3FB207E1F710E0CDE5F1
:1000F000D0E004C02197FE010E94880CCC35D107C6
:10010000C9F70E945C040C94C9070C94000090E0AD
:10011000FC01EC55FF4F2491FC01E057FF4F849107
:10012000882399F090E0880F991FFC01EA57FF4F50
:10013000A591B491FC01E458FF4F859194918FB73C
:10014000F894EC91E22BEC938FBF08950F931F93DB
:10015000CF93DF93FC01A685B7858D01005C1F4F0F
:10016000E8018881998101968F739927AD014E5BD3
:100170005F4FEA012881398128173907D1F3E80157
:1001800028813981A20FB31F6C93A685B785A05C27
:10019000BF4F11969C938E93A689B7892C9181E0CD
:1001A00090E0078C02C0880F991F0A94E2F7822B17
:1001B0008C9381E081A30488F589E02D808180649F
:1001C000808381E090E0DF91CF911F910F9108959E
:1001D000FC0181A1882329F0A489B5898C9186FF2F
:1001E000FBCF11A20895FC01A485B585FD01E05C5B
:1001F000FF4F208131813296808191812817390704
:1002000079F080819181A80FB91F8C912081318173
:100210002F5F3F4F2F7333273183208390E0089562
:100220008FEF9FEF08952FB7F8948091D2019091AE
:10023000D301A091D401B091D5012FBF8093DE01ED
:100240009093DF01A093E001B093E10186ED91E08E
:100250000E94F30097FF26C02FB7F8948091D20137
:100260009091D301A091D401B091D5012FBF4091BD
:10027000DE015091DF016091E0017091E101841B8A
:10028000950BA60BB70B4091DA015091DB01609101
:10029000DC017091DD0184179507A607B707B0F25E
:1002A0008FEF9FEF0895DC011C96ED91FC911D9757
:1002B000DF01A05CBF4F2D913C91119712968D915B
:1002C0009C9111972817390739F08D919C91E80F6F
:1002D000F91F808190E008958FEF9FEF0895FC0152
:1002E00024853585F901E05CFF4F8081918132964C
:1002F00020813181821B930B8F739927089586ED9E
:1003000091E00C946F010895CF92DF92EF92FF92EB
:100310000F931F93CF93DF936C01EB017B01E40EEE
:10032000F51E00E010E0CE15DF0561F06991D60101
:10033000ED91FC910190F081E02DC6010995080F27
:10034000191FF1CFC801DF91CF911F910F91FF903D
:10035000EF90DF90CF90089590E0FC01E859FF4FB7
:100360002491FC01EC55FF4F3491FC01E057FF4F05
:10037000E491EE2309F43CC0222339F1233091F0BB
:1003800038F42130A9F0223001F584B58F7D12C0F8
:10039000263091F02730A1F02430B9F4809180000C
:1003A0008F7D03C0809180008F77809380000DC087
:1003B00084B58F7784BD09C08091B0008F7703C06A
:1003C0008091B0008F7D8093B000F0E0EE0FFF1FB2
:1003D000E458FF4FA591B4919FB7F894611104C000
:1003E0008C913095382302C0EC913E2B3C939FBFFB
:1003F00008953FB7F8948091370190913801A0910A
:100400003901B0913A0126B5A89B05C02F3F19F0DC
:100410000196A11DB11D3FBFBA2FA92F982F882784
:10042000820F911DA11DB11DBC01CD0142E0660FDF
:10043000771F881F991F4A95D1F70895009769F093
:10044000FC0101900020E9F73197AF01481B590BDF
:10045000BC0186ED91E00C94840180E090E0089569
:100460008F929F92AF92BF92EF92FF920F931F9342
:10047000CF93DF93CDB7DEB7A1970FB6F894DEBF69
:100480000FBECDBF162F042F19A2423008F40AE088
:100490007E0121E2E20EF11C802E912CA12CB12CC8
:1004A000612FA50194010E942F0C029F10191124A5
:1004B00081E0E81AF1081A3014F4105D01C0195CEB
:1004C000F7011083122F732FCA01232B242B252B06
:1004D00039F7C7010E941E02A1960FB6F894DEBF3D
:1004E0000FBECDBFDF91CF911F910F91FF90EF9085
:1004F000BF90AF909F908F900895CF92DF92EF9230
:10050000FF92CF93DF936B017C016DE286ED91E06A
:100510000E94A600EC0166277727CB016C197D09A4
:100520008E099F094AE00E9430028C0F9D1FDF91C7
:10053000CF91FF90EF90DF90CF9008950F931F938E
:10054000CF93DF93EC0188819981009729F02A816C
:100550003B812617370788F48B016F5F7F4F0E941E
:100560000209009761F0998388831B830A832C8199
:100570003D81232B11F4FC01108281E001C080E059
:10058000DF91CF911F910F910895EF92FF920F93FA
:100590001F93CF93DF93EC017B018A01BA010E9484
:1005A0009E022881398181110DC02115310519F074
:1005B000C9010E947908198218821D821C821B823F
:1005C0001A8206C01D830C83B701C9010E94E50988
:1005D000CE01DF91CF911F910F91FF90EF90089581
:1005E000BF92CF92DF92EF92FF920F931F93CF9320
:1005F000DF937C016B01EA0189012417350720F4A0
:100600008D2FE901042F182FD70111961C921E92ED
:1006100013961C921E92129715961C921E92149776
:1006200016961C9240E050E067E271E0C7010E941C
:10063000C502F601848195818C179D07C0F1801752
:10064000910708F48C01D601ED91FC911197E00F10
:10065000F11FB08010826D917C916C0F7D1F611530
:10066000710561F0FB0101900020E9F73197AF01BE
:10067000461B570BC7010E94C50213C0F7018081BA
:100680009181009711F00E947908D70111961C9270
:100690001E9215961C921E92149713961C921E92EF
:1006A0001297D601ED91FC91E00FF11FB082C701C6
:1006B000DF91CF911F910F91FF90EF90DF90CF903E
:1006C000BF9008951F920F920FB60F9211242F938F
:1006D0003F938F939F93EF93FF9320918A013091E3
:1006E0008B0180918C0190918D012817390731F48D
:1006F0008091C1008F7D8093C10014C0E0918C0176
:10070000F0918D01E65BFE4F208180918C019091EC
:100710008D0101968F73992790938D0180938C01A1
:100720002093C600FF91EF919F918F913F912F9160
:100730000F900FBE0F901F9018951F920F920FB63B
:100740000F9211242F934F935F938F939F93EF9367
:10075000FF938091C00082FD1CC02091C600809153
:10076000CE019091CF014091D0015091D1010196DD
:100770008F7399274817590771F0E091CE01F091D6
:10078000CF01E257FE4F20839093CF018093CE019B
:1007900002C08091C600FF91EF919F918F915F9170
:1007A0004F912F910F900FBE0F901F9018951F9291
:1007B0000F920FB60F9211242F933F938F939F9315
:1007C000AF93BF938091D2019091D301A091D401B6
:1007D000B091D5013091360123E0230F2D3720F45D
:1007E0000196A11DB11D05C026E8230F0296A11D8B
:1007F000B11D209336018093D2019093D301A09331
:10080000D401B093D5018091370190913801A09126
:100810003901B0913A010196A11DB11D80933701B4
:1008200090933801A0933901B0933A01BF91AF91F1
:100830009F918F913F912F910F900FBE0F901F901E
:100840001895E6EDF1E01382128288EE93E0A0E0C5
:10085000B0E084839583A683B7838AE091E0918397
:1008600080838EE891E0958784878AE491E097877A
:10087000868785EC90E0918B808B84EC90E0938B65
:10088000828B80EC90E0958B848B81EC90E0978B51
:10089000868B82EC90E0918F808F86EC90E0938F36
:1008A000828F84E0848F83E0858F87E0868F85E068
:1008B000878F81E080A30895CF93DF93CDB7DEB714
:1008C0006D970FB6F894DEBF0FBECDBF789484B598
:1008D000826084BD84B5816084BD85B5826085BD3C
:1008E00085B5816085BD80916E00816080936E00CA
:1008F00010928100809181008260809381008091BC
:10090000810081608093810080918000816080936C
:1009100080008091B10084608093B1008091B0002C
:1009200081608093B00080917A00846080937A0027
:1009300080917A00826080937A0080917A00816051
:1009400080937A0080917A00806880937A00109278
:10095000C100E091EA01F091EB0181E090E09C019F
:100960000090F60102C0220F331F0A94E2F72083A1
:10097000E091E601F091E7011082E091E801F09149
:10098000E9012FEC20831092F701E091EC01F09146
:10099000ED0140819C010090F20102C0220F331F43
:1009A0000A94E2F7242B2083E091EC01F091ED0111
:1009B00040819C010090F30102C0220F331F0A9472
:1009C000E2F7242B2083E091EC01F091ED014081CE
:1009D0009C010090F40102C0220F331F0A94E2F739
:1009E000242B2083E091EC01F091ED012081009017
:1009F000F50102C0880F991F0A94E2F780958223BF
:100A0000808388E00E94870089E00E9487008AE056
:100A10000E9487008BE00E94870010924001109294
:100A2000410110924201109243018FEF9FEF90938A
:100A300045018093440110924601109247011092A3
:100A40004801109249014E0187E0880E911C222432
:100A50002A94322CAA24A394B12C86ED91E00E9412
:100A60006F01181619060CF0EEC0188E1F8A1A8E28
:100A7000198E1C8E1B8E1D8E40E050E067E271E0E7
:100A8000CE0147960E94C5020E9413010B8D1C8D5A
:100A900097FD19C089831A820F5F1F4FB801CE01DD
:100AA00047960E949E02882379F32F89388D8B8D7B
:100AB0009C8DBE016F5F7F4F820F931F0E94E509DF
:100AC0001C8F0B8FE1CFCF88D88C01151105E9F071
:100AD00066E171E0C6010E94DC09892BB1F4109235
:100AE0004001109241011092420110924301B092D4
:100AF0004501A092440110924601109247011092C4
:100B0000480110924901C6019CC01A821982FE0157
:100B100031967F01F701819191917F0101968017B4
:100B2000910758F46EE270E08C0D9D1D0E94D10972
:100B3000009719F08C199D0902C08FEF9FEFF70104
:100B400091838083E814F90429F724E030E040E041
:100B500050E0BE01695E7F4FCE0140960E94F002D8
:100B60008C899D89892BC9F0088919896BE171E00D
:100B7000C8010E94DC09892B29F4B0924501A0929A
:100B800044010BC060E271E0C8010E94DC09892BBE
:100B900021F430924501209244012D813E814B8108
:100BA0005C814F5F5F4FBE01695E7F4FCE0109964A
:100BB0000E94F00209851A850115110531F0C8015E
:100BC0000E94A2076B017C0103C0C12CD12C7601CD
:100BD000C8010E9479082B8D3C8D215031094F812D
:100BE00058854F5F5F4FBE01695E7F4FCE0109960A
:100BF0000E94F00209851A850115110531F0C8011E
:100C00000E94A2072B013C0103C0412C512C320150
:100C1000C8010E947908C0924001D0924101E0923F
:100C20004201F09243014092460150924701609286
:100C3000480170924901888999890E9479088F89B1
:100C4000988D0E9479088091400190914101A09176
:100C50004201B0914301892B8A2B8B2B09F46FC180
:100C6000C0904601D0904701E0904801F0904901C2
:100C70006090440170903B01F4E0F7152CF01714DC
:100C80002CF034E0732E02C077247394862D062C4A
:100C9000000C990BAA0BBB0B40913C0150913D01FC
:100CA00060913E0170913F01840F951FA61FB71FF1
:100CB00080933C0190933D01A0933E01B0933F018E
:100CC00000E110E0072C02C0159507950A94E2F7A1
:100CD000B80183E0759567958A95E1F788E00E94F1
:100CE000AC01B8017595679575956795617089E058
:100CF0000E94AC01B8017595679561708AE00E9409
:100D0000AC01602F61708BE00E94AC01760C709298
:100D10003B01EE24FF240E94F9018B01C114D10490
:100D2000E104F10479F00E94F901601B710B683E47
:100D30007340A0F391E0C91AD108E108F108085105
:100D40001C4FECCF8091400190914101A091420154
:100D5000B09143010197A109B1098093400190939B
:100D60004101A0934201B0934301E0E4E0937C0091
:100D700080917A00806480937A0080917A0086FD69
:100D8000FCCF609178008091790070E0782B072E7D
:100D9000000C880B990B0E94080B20E030E040EA21
:100DA0005BE30E94BD0B9B01AC0160E070E080E85A
:100DB0009FE30E945E0A20E030E040E551E40E949B
:100DC000BD0B6B017C0160913C0170913D018091F4
:100DD0003E0190913F0197FF03C00E947D0203C036
:100DE0004AE00E94300285E291E00E941E02A701C3
:100DF0009601C701B6010E942A0C882319F088E2E7
:100E000091E01AC026013701E89477F82FEF3FEF01
:100E10004FE75FE7C301B2010E942A0C81110FC0A6
:100E20002FEF3FEF4FE75FE7C301B2010E94590A7E
:100E300018162CF48CE291E00E941E0276C02FEF6F
:100E40003FEF4FE75FE4C701B6010E94B80B1816E9
:100E50001CF480E391E0F0CF2FEF3FEF4FE75FEC22
:100E6000C701B6010E94590A87FDF3CF20E030E0A8
:100E7000A901C701B6010E94590A87FF09C06DE2A6
:100E800086ED91E00E94A600F7FAF094F7F8F0944E
:100E90002AE037ED43EA5BE3C701B6010E94ED09A2
:100EA0006B017C010E94D70A2B013C010E94060BBA
:100EB0009B01AC01C701B6010E94EC096B017C01EA
:100EC0004AE0C301B2010E94300284E391E00E9433
:100ED0001E0213E0115049F120E030E040E251E4FD
:100EE000C701B6010E94BD0B2B013C010E94D00A34
:100EF0006B01770FEE08FF08F7FE05C0C701B601CA
:100F00000E947D0205C04AE0C701B6010E9430027E
:100F1000C701B6010E94080B9B01AC01C301B201DD
:100F20000E94EC096B017C01D5CF6DE086ED91E06C
:100F30000E94A6006AE086ED91E00E94A6000E9451
:100F40007F018BCD1F93FC0199278827BC01E89472
:100F500011911032E9F3193010F01E30C8F31B3232
:100F600051F01D3249F4689406C00E94CC07610F0D
:100F7000711D811D911D119110531A30B0F33EF473
:100F800090958095709561957F4F8F4F9F4F1F91E2
:100F90000895F8940C948E0C592F482F372F262F34
:100FA000660F771F881F991F660F771F881F991F6D
:100FB000620F731F841F951F660F771F881F991F6D
:100FC00008950F931F93CF93DF938230910510F410
:100FD00082E090E0E091FA01F091FB0120E030E046
:100FE000A0E0B0E0309719F1408151810281138176
:100FF00048175907C8F08417950769F4109731F01E
:1010000012960C93129713961C9327C00093FA0123
:101010001093FB0122C02115310519F04217530727
:1010200018F49A01BD01EF01DF01F801DBCF2115B2
:101030003105F9F0281B390B2430310580F48A8101
:101040009B816115710521F0FB019383828304C0AC
:101050009093FB018093FA01FE01329644C0FE0199
:10106000E20FF31F81939193225031093983288332
:101070003AC02091F8013091F901232B41F42091DD
:101080000201309103013093F9012093F80120917E
:101090000001309101012115310541F42DB73EB712
:1010A0004091040150910501241B350BE091F8019A
:1010B000F091F901E217F307A0F42E1B3F0B28175C
:1010C000390778F0AC014E5F5F4F2417350748F0C1
:1010D0004E0F5F1F5093F9014093F8018193919354
:1010E00002C0E0E0F0E0CF01DF91CF911F910F91BE
:1010F0000895CF93DF93009709F481C0FC013297E4
:1011000013821282A091FA01B091FB01109781F431
:1011100020813181820F931F2091F8013091F901D4
:101120002817390751F5F093F901E093F80167C0EA
:10113000ED0120E030E0CE17DF0740F44A815B810B
:101140009E0141155105F1F0EA01F5CFD383C28329
:1011500040815181840F951FC817D90759F48881A0
:101160009981840F951F0296918380838A819B8148
:10117000938382832115310529F4F093FB01E093D9
:10118000FA013DC0E901FB83EA8349915991C40FFB
:10119000D51FEC17FD0761F480819181840F951FA5
:1011A0000296E90199838883828193819B838A8354
:1011B000E0E0F0E012968D919C911397009719F062
:1011C000FD01DC01F7CF8D919C9111979D012E5F60
:1011D0003F4F820F931F2091F8013091F90128179A
:1011E000390769F4309729F41092FB011092FA0143
:1011F00002C013821282B093F901A093F801DF912B
:10120000CF910895A0E0B0E0E8E0F9E00C94550C2F
:10121000EC01009721F4CB010E94E107B4C0FC016E
:10122000E60FF71F9C0122503109E217F30708F47B
:10123000A8C0D9010D911C91119706171707B0F09E
:101240000530110508F49BC0C8010497861797075D
:1012500008F495C002501109061B170B0193119356
:101260006D937C93CF010E94790889C05B01A01A1D
:10127000B10A4C01800E911EA091FA01B091FB01C0
:10128000612C712CE12CF12C109709F446C08D9142
:101290009C911197A815B905B1F56C0142E0C40EF7
:1012A000D11CCA14DB0478F14C018A189B08640134
:1012B00042E0C40ED11C1296BC9012971396AC91CA
:1012C000B5E0CB16D10440F0B282A3839182808234
:1012D000D9016D937C9309C00E5F1F4F800F911F42
:1012E000F90191838083EB2DFA2FE114F10431F0A1
:1012F000D7011396FC93EE93129741C0F093FB0134
:10130000E093FA013CC06816790608F43C017D01BF
:1013100012960D90BC91A02DB7CF8091F8019091BD
:10132000F90188169906E1F466167706C8F48091EB
:10133000000190910101009741F48DB79EB7409153
:10134000040150910501841B950BE817F907C8F4B7
:10135000F093F901E093F801F901718360830FC004
:10136000CB010E94E1077C01009759F0A801BE0162
:101370000E94C809CE010E947908C70104C0CE01AD
:1013800002C080E090E0CDB7DEB7EEE00C94710CC7
:10139000FB01DC0102C001900D9241505040D8F792
:1013A0000895FC018191861721F08823D9F79927A8
:1013B00008953197CF010895FB01DC018D910190D3
:1013C00080190110D9F3990B0895FB01DC010190FC
:1013D0000D920020E1F708955058BB27AA270E94DC
:1013E000040A0C947E0B0E94700B38F00E94770B5D
:1013F00020F039F49F3F19F426F40C946D0B0EF491
:10140000E095E7FB0C94670BE92F0E948F0B58F3D4
:10141000BA17620773078407950720F079F4A6F5D9
:101420000C94B10B0EF4E0950B2EBA2FA02D0B01EE
:10143000B90190010C01CA01A0011124FF27591B19
:1014400099F0593F50F4503E68F11A16F040A22F1F
:10145000232F342F4427585FF3CF46953795279590
:10146000A795F0405395C9F77EF41F16BA0B620B8F
:10147000730B840BBAF09150A1F0FF0FBB1F661FD6
:10148000771F881FC2F70EC0BA0F621F731F841F19
:1014900048F4879577956795B795F7959E3F08F03F
:1014A000B0CF9395880F08F09927EE0F9795879501
:1014B00008950E94430B08F481E008950E94720A87
:1014C0000C947E0B0E94770B58F00E94700B40F03A
:1014D00029F45F3F29F00C94670B51110C94B20B67
:1014E0000C946D0B0E948F0B68F39923B1F3552375
:1014F00091F3951B550BBB27AA2762177307840727
:1015000038F09F5F5F4F220F331F441FAA1FA9F3BC
:1015100035D00E2E3AF0E0E832D091505040E695AA
:10152000001CCAF72BD0FE2F29D0660F771F881F0B
:10153000BB1F261737074807AB07B0E809F0BB0BFE
:10154000802DBF01FF2793585F4F3AF09E3F510512
:1015500078F00C94670B0C94B20B5F3FE4F3983E69
:10156000D4F3869577956795B795F7959F5FC9F7FB
:10157000880F911D9695879597F90895E1E0660F7C
:10158000771F881FBB1F621773078407BA0720F0F5
:10159000621B730B840BBA0BEE1F88F7E09508955E
:1015A0000E94D70A6894B1110C94B20B08950E945E
:1015B000970B88F09F5798F0B92F9927B751B0F043
:1015C000E1F0660F771F881F991F1AF0BA95C9F7C7
:1015D00014C0B13091F00E94B10BB1E008950C94A9
:1015E000B10B672F782F8827B85F39F0B93FCCF35C
:1015F000869577956795B395D9F73EF49095809544
:10160000709561957F4F8F4F9F4F0895E89409C063
:1016100097FB3EF490958095709561957F4F8F4F25
:101620009F4F9923A9F0F92F96E9BB279395F6953B
:10163000879577956795B795F111F8CFFAF4BB0FB9
:1016400011F460FF1BC06F5F7F4F8F4F9F4F16C01D
:10165000882311F096E911C0772321F09EE8872FA7
:10166000762F05C0662371F096E8862F70E060E063
:101670002AF09A95660F771F881FDAF7880F9695DC
:10168000879597F90895990F0008550FAA0BE0E880
:10169000FEEF16161706E807F907C0F01216130634
:1016A000E407F50798F0621B730B840B950B39F474
:1016B0000A2661F0232B242B252B21F408950A26DA
:1016C00009F4A140A6958FEF811D811D089597F91A
:1016D0009F6780E870E060E008959FEF80EC0895D8
:1016E00000240A9416161706180609060895002401
:1016F0000A9412161306140605060895092E03947B
:10170000000C11F4882352F0BB0F40F4BF2B11F4EE
:1017100060FF04C06F5F7F4F8F4F9F4F089557FD4D
:101720009058440F551F59F05F3F71F04795880F4F
:1017300097FB991F61F09F3F79F0879508951216E6
:1017400013061406551FF2CF4695F1DF08C0161692
:1017500017061806991FF1CF869571056105089443
:101760000895E894BB2766277727CB0197F908955A
:101770000E94430B08F48FEF08950E94D00B0C9445
:101780007E0B0E94700B38F00E94770B20F095239F
:1017900011F00C94670B0C946D0B11240C94B20B8C
:1017A0000E948F0B70F3959FC1F3950F50E0551F6A
:1017B000629FF001729FBB27F00DB11D639FAA27A6
:1017C000F00DB11DAA1F649F6627B00DA11D661FF5
:1017D000829F2227B00DA11D621F739FB00DA11D16
:1017E000621F839FA00D611D221F749F3327A00DD0
:1017F000611D231F849F600D211D822F762F6A2F6C
:1018000011249F5750409AF0F1F088234AF0EE0FD0
:10181000FF1FBB1F661F771F881F91505040A9F7FD
:101820009E3F510580F00C94670B0C94B20B5F3F08
:10183000E4F3983ED4F3869577956795B795F79539
:10184000E7959F5FC1F7FE2B880F911D96958795B1
:1018500097F908950E94430B880B990B0895A1E214
:101860001A2EAA1BBB1BFD010DC0AA1FBB1FEE1F1A
:10187000FF1FA217B307E407F50720F0A21BB30B65
:10188000E40BF50B661F771F881F991F1A9469F7E1
:1018900060957095809590959B01AC01BD01CF013D
:1018A00008952F923F924F925F926F927F928F9204
:1018B0009F92AF92BF92CF92DF92EF92FF920F93DF
:1018C0001F93CF93DF93CDB7DEB7CA1BDB0B0FB6E9
:1018D000F894DEBF0FBECDBF09942A8839884888A6
:1018E0005F846E847D848C849B84AA84B984C8843C
:1018F000DF80EE80FD800C811B81AA81B981CE0F33
:10190000D11D0FB6F894DEBF0FBECDBFED01089517
:10191000EE0FFF1F0590F491E02D0994F894FFCF8E
:101920000000FC01200000000000A60084016F01FF
:10193000F3005301E80073746F70006D6F766300FD
:101940006D6F7661002020006E616E00696E66002A
:061950006F7666002E0018
:00000001FF
